:020000040800F2
:1000000060060020190200082102000823020008EF
:10001000250200082702000829020008000000004D
:100020000000000000000000000000002B0200089B
:100030002D020008000000002F0200083102000815
:1000400033020008330200083302000833020008BC
:1000500033020008330200083302000833020008AC
:10006000330200083302000833020008330200089C
:10007000330200083302000833020008330200088C
:10008000330200083302000833020008330200087C
:10009000330200083302000833020008330200086C
:1000A000330200083302000833020008330200085C
:1000B000330200083302000833020008330200084C
:1000C000330200083302000833020008330200083C
:1000D000330200083302000833020008330200082C
:1000E000330200083302000833020008330200081C
:1000F000330200083302000833020008330200080C
:100100003302000800000000000000003302000875
:1001100033020008330200083302000833020008EB
:1001200033020008330200083302000833020008DB
:100130003302000833020008000000000000000045
:1001400033020008330200083302000800000000F8
:10015000000000000000000000000000000000009F
:10016000330200083302000833020008330200089B
:10017000330200083302000833020008330200088B
:1001800033020008330200080000000000000000F5
:100190003302000800F002F800F02EF80AA090E800
:1001A000000C82448344AAF10107DA4501D100F032
:1001B00023F8AFF2090EBAE80F0013F0010F18BFD1
:1001C000FB1A43F001031847300200004002000010
:1001D0000023002400250026103A28BF78C1FBD850
:1001E000520728BF30C148BF0B6070471FB500F0F1
:1001F000FDF81FBD10B510BD00F031F81146FFF736
:10020000F5FF00F0E1F800F04FF803B4FFF7F2FF5C
:1002100003BC00F057F80000094880470948004730
:10022000FEE7FEE7FEE7FEE7FEE7FEE7FEE7FEE7A6
:10023000FEE7FEE704480549054A064B7047000003
:10024000D50200089501000860000020600600202B
:1002500060020020600200207047704770477546BA
:1002600000F02CF8AE4605006946534620F0070022
:10027000854618B020B5FFF7DDFFBDE820404FF000
:1002800000064FF000074FF000084FF0000B21F080
:100290000701AC46ACE8C009ACE8C009ACE8C0094D
:1002A000ACE8C0098D46704710B50446AFF3008036
:1002B0002046BDE81040FFF7A8BF00000048704787
:1002C0000000002001491820ABBEFEE72600020016
:1002D000704700001948006840F470001749086032
:1002E0001748006840F0010015490860084640685A
:1002F00014490840124948600846006812490840FD
:100300000F4908600846006820F48020086008460D
:10031000406820F4FE0048600846C06A20F00F00E4
:10032000C8620846006B0949084005490863002077
:100330008860C803014980390860704788ED00E093
:10034000001002400CC07FF8FFFFF6FECCFC00FF5F
:100350001448C06940F400301249C8610846406939
:1003600040F4003048614FF09040006840F0A00039
:100370004FF0904108600846006A40F4EE40086281
:1003800040F241300849086007480C38006840F0E6
:10039000080005490C3908600846006840F0010073
:1003A00008607047001002400C44004000BF05493F
:1003B000096801F080010029F9D0C1B2014A0C326C
:1003C000118070471C440040FFF7C2FF0BE048203B
:1003D000FFF7ECFF4920FFF7E9FF002000E0401C99
:1003E00001498842FBDBF2E720A107004FF0407093
:1003F000E1EE100A70470000080400080000002029
:0804000060060000D0010008B5
:0400000508000219D4
:00000001FF
